{"abi":[{"type":"constructor","inputs":[{"name":"_oracleAddress","type":"address","internalType":"address"},{"name":"_lendingPoolAddress","type":"address","internalType":"address"},{"name":"_aTokenAddress","type":"address","internalType":"address"},{"name":"_initialOwner","type":"address","internalType":"address"}],"stateMutability":"nonpayable"},{"type":"function","name":"approve","inputs":[{"name":"to","type":"address","internalType":"address"},{"name":"tokenId","type":"uint256","internalType":"uint256"}],"outputs":[],"stateMutability":"nonpayable"},{"type":"function","name":"balanceOf","inputs":[{"name":"owner","type":"address","internalType":"address"}],"outputs":[{"name":"","type":"uint256","internalType":"uint256"}],"stateMutability":"view"},{"type":"function","name":"claimInsurance","inputs":[{"name":"tokenId","type":"uint256","internalType":"uint256"}],"outputs":[],"stateMutability":"nonpayable"},{"type":"function","name":"getApproved","inputs":[{"name":"tokenId","type":"uint256","internalType":"uint256"}],"outputs":[{"name":"","type":"address","internalType":"address"}],"stateMutability":"view"},{"type":"function","name":"getLatestPrice","inputs":[],"outputs":[{"name":"","type":"int256","internalType":"int256"}],"stateMutability":"view"},{"type":"function","name":"isApprovedForAll","inputs":[{"name":"owner","type":"address","internalType":"address"},{"name":"operator","type":"address","internalType":"address"}],"outputs":[{"name":"","type":"bool","internalType":"bool"}],"stateMutability":"view"},{"type":"function","name":"name","inputs":[],"outputs":[{"name":"","type":"string","internalType":"string"}],"stateMutability":"view"},{"type":"function","name":"owner","inputs":[],"outputs":[{"name":"","type":"address","internalType":"address"}],"stateMutability":"view"},{"type":"function","name":"ownerOf","inputs":[{"name":"tokenId","type":"uint256","internalType":"uint256"}],"outputs":[{"name":"","type":"address","internalType":"address"}],"stateMutability":"view"},{"type":"function","name":"positions","inputs":[{"name":"","type":"address","internalType":"address"}],"outputs":[{"name":"lentAmount","type":"uint256","internalType":"uint256"},{"name":"borrowedAmount","type":"uint256","internalType":"uint256"},{"name":"totalInsured","type":"uint256","internalType":"uint256"},{"name":"userAddress","type":"address","internalType":"address"}],"stateMutability":"view"},{"type":"function","name":"purchaseInsurance","inputs":[{"name":"insuredAmount","type":"uint256","internalType":"uint256"}],"outputs":[],"stateMutability":"payable"},{"type":"function","name":"renounceOwnership","inputs":[],"outputs":[],"stateMutability":"nonpayable"},{"type":"function","name":"safeTransferFrom","inputs":[{"name":"from","type":"address","internalType":"address"},{"name":"to","type":"address","internalType":"address"},{"name":"tokenId","type":"uint256","internalType":"uint256"}],"outputs":[],"stateMutability":"nonpayable"},{"type":"function","name":"safeTransferFrom","inputs":[{"name":"from","type":"address","internalType":"address"},{"name":"to","type":"address","internalType":"address"},{"name":"tokenId","type":"uint256","internalType":"uint256"},{"name":"data","type":"bytes","internalType":"bytes"}],"outputs":[],"stateMutability":"nonpayable"},{"type":"function","name":"setApprovalForAll","inputs":[{"name":"operator","type":"address","internalType":"address"},{"name":"approved","type":"bool","internalType":"bool"}],"outputs":[],"stateMutability":"nonpayable"},{"type":"function","name":"setOracleMockResponse","inputs":[{"name":"_mockResponse","type":"uint256","internalType":"uint256"}],"outputs":[],"stateMutability":"nonpayable"},{"type":"function","name":"supportsInterface","inputs":[{"name":"interfaceId","type":"bytes4","internalType":"bytes4"}],"outputs":[{"name":"","type":"bool","internalType":"bool"}],"stateMutability":"view"},{"type":"function","name":"symbol","inputs":[],"outputs":[{"name":"","type":"string","internalType":"string"}],"stateMutability":"view"},{"type":"function","name":"tokenURI","inputs":[{"name":"tokenId","type":"uint256","internalType":"uint256"}],"outputs":[{"name":"","type":"string","internalType":"string"}],"stateMutability":"view"},{"type":"function","name":"totalSupply","inputs":[],"outputs":[{"name":"","type":"uint256","internalType":"uint256"}],"stateMutability":"view"},{"type":"function","name":"transferFrom","inputs":[{"name":"from","type":"address","internalType":"address"},{"name":"to","type":"address","internalType":"address"},{"name":"tokenId","type":"uint256","internalType":"uint256"}],"outputs":[],"stateMutability":"nonpayable"},{"type":"function","name":"transferOwnership","inputs":[{"name":"newOwner","type":"address","internalType":"address"}],"outputs":[],"stateMutability":"nonpayable"},{"type":"event","name":"Approval","inputs":[{"name":"owner","type":"address","indexed":true,"internalType":"address"},{"name":"approved","type":"address","indexed":true,"internalType":"address"},{"name":"tokenId","type":"uint256","indexed":true,"internalType":"uint256"}],"anonymous":false},{"type":"event","name":"ApprovalForAll","inputs":[{"name":"owner","type":"address","indexed":true,"internalType":"address"},{"name":"operator","type":"address","indexed":true,"internalType":"address"},{"name":"approved","type":"bool","indexed":false,"internalType":"bool"}],"anonymous":false},{"type":"event","name":"BatchMetadataUpdate","inputs":[{"name":"_fromTokenId","type":"uint256","indexed":false,"internalType":"uint256"},{"name":"_toTokenId","type":"uint256","indexed":false,"internalType":"uint256"}],"anonymous":false},{"type":"event","name":"InsuranceClaimed","inputs":[{"name":"user","type":"address","indexed":true,"internalType":"address"},{"name":"claimedAmount","type":"uint256","indexed":false,"internalType":"uint256"}],"anonymous":false},{"type":"event","name":"InsurancePurchased","inputs":[{"name":"user","type":"address","indexed":true,"internalType":"address"},{"name":"insuredAmount","type":"uint256","indexed":false,"internalType":"uint256"}],"anonymous":false},{"type":"event","name":"MetadataUpdate","inputs":[{"name":"_tokenId","type":"uint256","indexed":false,"internalType":"uint256"}],"anonymous":false},{"type":"event","name":"OwnershipTransferred","inputs":[{"name":"previousOwner","type":"address","indexed":true,"internalType":"address"},{"name":"newOwner","type":"address","indexed":true,"internalType":"address"}],"anonymous":false},{"type":"event","name":"Transfer","inputs":[{"name":"from","type":"address","indexed":true,"internalType":"address"},{"name":"to","type":"address","indexed":true,"internalType":"address"},{"name":"tokenId","type":"uint256","indexed":true,"internalType":"uint256"}],"anonymous":false},{"type":"error","name":"ERC721IncorrectOwner","inputs":[{"name":"sender","type":"address","internalType":"address"},{"name":"tokenId","type":"uint256","internalType":"uint256"},{"name":"owner","type":"address","internalType":"address"}]},{"type":"error","name":"ERC721InsufficientApproval","inputs":[{"name":"operator","type":"address","internalType":"address"},{"name":"tokenId","type":"uint256","internalType":"uint256"}]},{"type":"error","name":"ERC721InvalidApprover","inputs":[{"name":"approver","type":"address","internalType":"address"}]},{"type":"error","name":"ERC721InvalidOperator","inputs":[{"name":"operator","type":"address","internalType":"address"}]},{"type":"error","name":"ERC721InvalidOwner","inputs":[{"name":"owner","type":"address","internalType":"address"}]},{"type":"error","name":"ERC721InvalidReceiver","inputs":[{"name":"receiver","type":"address","internalType":"address"}]},{"type":"error","name":"ERC721InvalidSender","inputs":[{"name":"sender","type":"address","internalType":"address"}]},{"type":"error","name":"ERC721NonexistentToken","inputs":[{"name":"tokenId","type":"uint256","internalType":"uint256"}]},{"type":"error","name":"OwnableInvalidOwner","inputs":[{"name":"owner","type":"address","internalType":"address"}]},{"type":"error","name":"OwnableUnauthorizedAccount","inputs":[{"name":"account","type":"address","internalType":"address"}]}],"bytecode":{"object":"0x60806040523480156200001157600080fd5b5060405162001f2738038062001f27833981016040819052620000349162000190565b806040518060400160405280600f81526020016e496e737572616e6365506f6c69637960881b81525060405180604001604052806009815260200168494e535552414e434560b81b815250816000908162000090919062000294565b5060016200009f828262000294565b5050506001600160a01b038116620000d157604051631e4fbdf760e01b81526000600482015260240160405180910390fd5b620000dc8162000121565b5050600880546001600160a01b039485166001600160a01b0319918216179091556009805493851693821693909317909255600a805491909316911617905562000360565b600780546001600160a01b038381166001600160a01b0319831681179093556040519116919082907f8be0079c531659141344cd1fd0a4f28419497f9722a3daafe3b4186f6b6457e090600090a35050565b80516001600160a01b03811681146200018b57600080fd5b919050565b60008060008060808587031215620001a757600080fd5b620001b28562000173565b9350620001c26020860162000173565b9250620001d26040860162000173565b9150620001e26060860162000173565b905092959194509250565b634e487b7160e01b600052604160045260246000fd5b600181811c908216806200021857607f821691505b6020821081036200023957634e487b7160e01b600052602260045260246000fd5b50919050565b601f8211156200028f576000816000526020600020601f850160051c810160208610156200026a5750805b601f850160051c820191505b818110156200028b5782815560010162000276565b5050505b505050565b81516001600160401b03811115620002b057620002b0620001ed565b620002c881620002c1845462000203565b846200023f565b602080601f831160018114620003005760008415620002e75750858301515b600019600386901b1c1916600185901b1785556200028b565b600085815260208120601f198616915b82811015620003315788860151825594840194600190910190840162000310565b5085821015620003505787850151600019600388901b60f8161c191681555b5050505050600190811b01905550565b611bb780620003706000396000f3fe6080604052600436106101355760003560e01c8063715018a6116100ab578063b88d4fde1161006f578063b88d4fde1461039b578063c87b56dd146103bb578063e64e4588146103db578063e985e9c5146103ee578063f2fde38b1461040e578063f85920d81461042e57600080fd5b8063715018a61461031e5780638da5cb5b146103335780638e15f4731461035157806395d89b4114610366578063a22cb4651461037b57600080fd5b806323b872dd116100fd57806323b872dd1461020a57806325eb1bdd1461022a57806342842e0e1461024a57806355f575101461026a5780636352211e146102de57806370a08231146102fe57600080fd5b806301ffc9a71461013a57806306fdde031461016f578063081812fc14610191578063095ea7b3146101c957806318160ddd146101eb575b600080fd5b34801561014657600080fd5b5061015a6101553660046115d7565b61044e565b60405190151581526020015b60405180910390f35b34801561017b57600080fd5b50610184610479565b6040516101669190611644565b34801561019d57600080fd5b506101b16101ac366004611657565b61050b565b6040516001600160a01b039091168152602001610166565b3480156101d557600080fd5b506101e96101e436600461168c565b610534565b005b3480156101f757600080fd5b50600c545b604051908152602001610166565b34801561021657600080fd5b506101e96102253660046116b6565b610543565b34801561023657600080fd5b506101e9610245366004611657565b6105d3565b34801561025657600080fd5b506101e96102653660046116b6565b6105e0565b34801561027657600080fd5b506102b56102853660046116f2565b600d602052600090815260409020805460018201546002830154600390930154919290916001600160a01b031684565b604080519485526020850193909352918301526001600160a01b03166060820152608001610166565b3480156102ea57600080fd5b506101b16102f9366004611657565b610600565b34801561030a57600080fd5b506101fc6103193660046116f2565b61060b565b34801561032a57600080fd5b506101e9610653565b34801561033f57600080fd5b506007546001600160a01b03166101b1565b34801561035d57600080fd5b50600b546101fc565b34801561037257600080fd5b50610184610667565b34801561038757600080fd5b506101e961039636600461170d565b610676565b3480156103a757600080fd5b506101e96103b636600461175f565b610681565b3480156103c757600080fd5b506101846103d6366004611657565b610698565b6101e96103e9366004611657565b6107a9565b3480156103fa57600080fd5b5061015a61040936600461183b565b61093d565b34801561041a57600080fd5b506101e96104293660046116f2565b61096b565b34801561043a57600080fd5b506101e9610449366004611657565b6109a9565b60006001600160e01b03198216632483248360e11b1480610473575061047382610b5d565b92915050565b6060600080546104889061186e565b80601f01602080910402602001604051908101604052809291908181526020018280546104b49061186e565b80156105015780601f106104d657610100808354040283529160200191610501565b820191906000526020600020905b8154815290600101906020018083116104e457829003601f168201915b5050505050905090565b600061051682610bad565b506000828152600460205260409020546001600160a01b0316610473565b61053f828233610be6565b5050565b6001600160a01b03821661057257604051633250574960e11b8152600060048201526024015b60405180910390fd5b600061057f838333610bf3565b9050836001600160a01b0316816001600160a01b0316146105cd576040516364283d7b60e01b81526001600160a01b0380861660048301526024820184905282166044820152606401610569565b50505050565b6105db610cec565b600b55565b6105fb83838360405180602001604052806000815250610681565b505050565b600061047382610bad565b60006001600160a01b038216610637576040516322718ad960e21b815260006004820152602401610569565b506001600160a01b031660009081526003602052604090205490565b61065b610cec565b6106656000610d19565b565b6060600180546104889061186e565b61053f338383610d6b565b61068c848484610543565b6105cd84848484610e0a565b60606106a382610bad565b50600082815260066020526040812080546106bd9061186e565b80601f01602080910402602001604051908101604052809291908181526020018280546106e99061186e565b80156107365780601f1061070b57610100808354040283529160200191610736565b820191906000526020600020905b81548152906001019060200180831161071957829003601f168201915b50505050509050600061075460408051602081019091526000815290565b90508051600003610766575092915050565b8151156107985780826040516020016107809291906118a8565b60405160208183030381529060405292505050919050565b6107a184610f33565b949350505050565b6000811161080a5760405162461bcd60e51b815260206004820152602860248201527f496e737572656420616d6f756e74206d7573742062652067726561746572207460448201526768616e207a65726f60c01b6064820152608401610569565b336000908152600d60205260409020548111156108745760405162461bcd60e51b815260206004820152602260248201527f496e737572656420616d6f756e742065786365656473206c656e7420616d6f756044820152611b9d60f21b6064820152608401610569565b662386f26fc10000348111156108dd5760405162461bcd60e51b815260206004820152602860248201527f496e73756666696369656e742066756e647320746f20707572636861736520696044820152676e737572616e636560c01b6064820152608401610569565b60006108e882610fa8565b905060006108f63385610ffc565b90506109028185611023565b60405184815233907f4b58308df033561e43d2c0227b19bea93ae78a05df784c985482b3fb7e1546109060200160405180910390a250505050565b6001600160a01b03918216600090815260056020908152604080832093909416825291909152205460ff1690565b610973610cec565b6001600160a01b03811661099d57604051631e4fbdf760e01b815260006004820152602401610569565b6109a681610d19565b50565b336000818152600d60205260409020600301546001600160a01b0316610a115760405162461bcd60e51b815260206004820152601760248201527f506f736974696f6e20646f6573206e6f742065786973740000000000000000006044820152606401610569565b33610a1b83610600565b6001600160a01b031614610a715760405162461bcd60e51b815260206004820152601860248201527f596f7520646f6e2774206f776e207468697320746f6b656e00000000000000006044820152606401610569565b6000610a7c83611063565b9050662386f26fc1000047811115610ae45760405162461bcd60e51b815260206004820152602560248201527f496e73756666696369656e742066756e647320746f20636c61696d20696e737560448201526472616e636560d81b6064820152608401610569565b6000610af082846118ed565b604051909150339082156108fc029083906000818181858888f19350505050158015610b20573d6000803e3d6000fd5b5060405183815233907fd1ecb6c48be11bc10ebf5b0c43978edf1b7fcbc3f5adb6a5ea66952d6a73f72a9060200160405180910390a25050505050565b60006001600160e01b031982166380ac58cd60e01b1480610b8e57506001600160e01b03198216635b5e139f60e01b145b8061047357506301ffc9a760e01b6001600160e01b0319831614610473565b6000818152600260205260408120546001600160a01b03168061047357604051637e27328960e01b815260048101849052602401610569565b6105fb8383836001611154565b6000828152600260205260408120546001600160a01b0390811690831615610c2057610c2081848661125a565b6001600160a01b03811615610c5e57610c3d600085600080611154565b6001600160a01b038116600090815260036020526040902080546000190190555b6001600160a01b03851615610c8d576001600160a01b0385166000908152600360205260409020805460010190555b60008481526002602052604080822080546001600160a01b0319166001600160a01b0389811691821790925591518793918516917fddf252ad1be2c89b69c2b068fc378daa952ba7f163c4a11628f55a4df523b3ef91a4949350505050565b6007546001600160a01b031633146106655760405163118cdaa760e01b8152336004820152602401610569565b600780546001600160a01b038381166001600160a01b0319831681179093556040519116919082907f8be0079c531659141344cd1fd0a4f28419497f9722a3daafe3b4186f6b6457e090600090a35050565b6001600160a01b038216610d9d57604051630b61174360e31b81526001600160a01b0383166004820152602401610569565b6001600160a01b03838116600081815260056020908152604080832094871680845294825291829020805460ff191686151590811790915591519182527f17307eab39ab6107e8899845ad3d59bd9653f200f220920489ca2b5937696c31910160405180910390a3505050565b6001600160a01b0383163b156105cd57604051630a85bd0160e11b81526001600160a01b0384169063150b7a0290610e4c903390889087908790600401611900565b6020604051808303816000875af1925050508015610e87575060408051601f3d908101601f19168201909252610e8491810190611933565b60015b610ef0573d808015610eb5576040519150601f19603f3d011682016040523d82523d6000602084013e610eba565b606091505b508051600003610ee857604051633250574960e11b81526001600160a01b0385166004820152602401610569565b805181602001fd5b6001600160e01b03198116630a85bd0160e11b14610f2c57604051633250574960e11b81526001600160a01b0385166004820152602401610569565b5050505050565b6060610f3e82610bad565b506000610f5660408051602081019091526000815290565b90506000815111610f765760405180602001604052806000815250610fa1565b80610f80846112be565b604051602001610f919291906118a8565b6040516020818303038152906040525b9392505050565b600081610fbd6007546001600160a01b031690565b6001600160a01b03166108fc829081150290604051600060405180830381858888f19350505050158015610ff5573d6000803e3d6000fd5b5092915050565b60006001600c60008282546110119190611950565b9091555050600c54610fa18482611351565b600061102e836112be565b60405160200161103e9190611963565b6040516020818303038152906040529050611059838261136b565b6105cd83836113bb565b336000908152600d602052604081206002015481906110839084906113bb565b90506000600860009054906101000a90046001600160a01b03166001600160a01b031663feaf968c6040518163ffffffff1660e01b815260040160a060405180830381865afa1580156110da573d6000803e3d6000fd5b505050506040513d601f19601f820116820180604052508101906110fe91906119ac565b5050336000908152600d602052604081206001015492945092508491611126915084906119fc565b6111309190611a13565b90506000606461114085846119fc565b61114a9190611a13565b9695505050505050565b808061116857506001600160a01b03821615155b1561122a57600061117884610bad565b90506001600160a01b038316158015906111a45750826001600160a01b0316816001600160a01b031614155b80156111b757506111b5818461093d565b155b156111e05760405163a9fbf51f60e01b81526001600160a01b0384166004820152602401610569565b81156112285783856001600160a01b0316826001600160a01b03167f8c5be1e5ebec7d5bd14f71427d1e84f3dd0314c0f7b2291e5b200ac8c7c3b92560405160405180910390a45b505b5050600090815260046020526040902080546001600160a01b0319166001600160a01b0392909216919091179055565b61126583838361140a565b6105fb576001600160a01b03831661129357604051637e27328960e01b815260048101829052602401610569565b60405163177e802f60e01b81526001600160a01b038316600482015260248101829052604401610569565b606060006112cb8361146d565b600101905060008167ffffffffffffffff8111156112eb576112eb611749565b6040519080825280601f01601f191660200182016040528015611315576020820181803683370190505b5090508181016020015b600019016f181899199a1a9b1b9c1cb0b131b232b360811b600a86061a8153600a850494508461131f57509392505050565b61053f828260405180602001604052806000815250611545565b60008281526006602052604090206113838282611a85565b506040518281527ff8e1a15aba9398e019f0b49df1a4fde98ee17ae345cb5f6b5e2c27f5033e8ce79060200160405180910390a15050565b6000806113c784610698565b905060006113d4846112be565b826040516020016113e6929190611b45565b6040516020818303038152906040529050611401858261136b565b50919392505050565b60006001600160a01b038316158015906107a15750826001600160a01b0316846001600160a01b031614806114445750611444848461093d565b806107a15750506000908152600460205260409020546001600160a01b03908116911614919050565b60008072184f03e93ff9f4daa797ed6e38ed64bf6a1f0160401b83106114ac5772184f03e93ff9f4daa797ed6e38ed64bf6a1f0160401b830492506040015b6d04ee2d6d415b85acef810000000083106114d8576d04ee2d6d415b85acef8100000000830492506020015b662386f26fc1000083106114f657662386f26fc10000830492506010015b6305f5e100831061150e576305f5e100830492506008015b612710831061152257612710830492506004015b60648310611534576064830492506002015b600a83106104735760010192915050565b61154f838361155c565b6105fb6000848484610e0a565b6001600160a01b03821661158657604051633250574960e11b815260006004820152602401610569565b600061159483836000610bf3565b90506001600160a01b038116156105fb576040516339e3563760e11b815260006004820152602401610569565b6001600160e01b0319811681146109a657600080fd5b6000602082840312156115e957600080fd5b8135610fa1816115c1565b60005b8381101561160f5781810151838201526020016115f7565b50506000910152565b600081518084526116308160208601602086016115f4565b601f01601f19169290920160200192915050565b602081526000610fa16020830184611618565b60006020828403121561166957600080fd5b5035919050565b80356001600160a01b038116811461168757600080fd5b919050565b6000806040838503121561169f57600080fd5b6116a883611670565b946020939093013593505050565b6000806000606084860312156116cb57600080fd5b6116d484611670565b92506116e260208501611670565b9150604084013590509250925092565b60006020828403121561170457600080fd5b610fa182611670565b6000806040838503121561172057600080fd5b61172983611670565b91506020830135801515811461173e57600080fd5b809150509250929050565b634e487b7160e01b600052604160045260246000fd5b6000806000806080858703121561177557600080fd5b61177e85611670565b935061178c60208601611670565b925060408501359150606085013567ffffffffffffffff808211156117b057600080fd5b818701915087601f8301126117c457600080fd5b8135818111156117d6576117d6611749565b604051601f8201601f19908116603f011681019083821181831017156117fe576117fe611749565b816040528281528a602084870101111561181757600080fd5b82602086016020830137600060208483010152809550505050505092959194509250565b6000806040838503121561184e57600080fd5b61185783611670565b915061186560208401611670565b90509250929050565b600181811c9082168061188257607f821691505b6020821081036118a257634e487b7160e01b600052602260045260246000fd5b50919050565b600083516118ba8184602088016115f4565b8351908301906118ce8183602088016115f4565b01949350505050565b634e487b7160e01b600052601160045260246000fd5b81810381811115610473576104736118d7565b6001600160a01b038581168252841660208201526040810183905260806060820181905260009061114a90830184611618565b60006020828403121561194557600080fd5b8151610fa1816115c1565b80820180821115610473576104736118d7565b66697066733a2f2f60c81b8152600082516119858160078501602087016115f4565b9190910160070192915050565b805169ffffffffffffffffffff8116811461168757600080fd5b600080600080600060a086880312156119c457600080fd5b6119cd86611992565b94506020860151935060408601519250606086015191506119f060808701611992565b90509295509295909350565b8082028115828204841417610473576104736118d7565b600082611a3057634e487b7160e01b600052601260045260246000fd5b500490565b601f8211156105fb576000816000526020600020601f850160051c81016020861015611a5e5750805b601f850160051c820191505b81811015611a7d57828155600101611a6a565b505050505050565b815167ffffffffffffffff811115611a9f57611a9f611749565b611ab381611aad845461186e565b84611a35565b602080601f831160018114611ae85760008415611ad05750858301515b600019600386901b1c1916600185901b178555611a7d565b600085815260208120601f198616915b82811015611b1757888601518255948401946001909101908401611af8565b5085821015611b355787850151600019600388901b60f8161c191681555b5050505050600190811b01905550565b60008351611b578184602088016115f4565b601f60fa1b9083019081528351611b758160018401602088016115f4565b0160010194935050505056fea264697066735822122000baf41f1398b1db112965a88a12c19c5f9fa825cbc87ec86fdb7b3ece5c0e4864736f6c63430008170033","linkReferences":{}},"methodIdentifiers":{"approve(address,uint256)":"095ea7b3","balanceOf(address)":"70a08231","claimInsurance(uint256)":"f85920d8","getApproved(uint256)":"081812fc","getLatestPrice()":"8e15f473","isApprovedForAll(address,address)":"e985e9c5","name()":"06fdde03","owner()":"8da5cb5b","ownerOf(uint256)":"6352211e","positions(address)":"55f57510","purchaseInsurance(uint256)":"e64e4588","renounceOwnership()":"715018a6","safeTransferFrom(address,address,uint256)":"42842e0e","safeTransferFrom(address,address,uint256,bytes)":"b88d4fde","setApprovalForAll(address,bool)":"a22cb465","setOracleMockResponse(uint256)":"25eb1bdd","supportsInterface(bytes4)":"01ffc9a7","symbol()":"95d89b41","tokenURI(uint256)":"c87b56dd","totalSupply()":"18160ddd","transferFrom(address,address,uint256)":"23b872dd","transferOwnership(address)":"f2fde38b"},"id":23}